:040000009AEF7FF004
:10FF3000CA8412000001C0EF7FF00F0EBA6E050EEA
:10FF4000BB6E000E0F01526F1200700ED36E000ECA
:10FF50009B6E000E0F013D6F1200A5EC7FF0E4ECEC
:10FF60007FF0B6EC7FF09DEC7FF01200000ECA6EC1
:10FF7000270ECB6E000ECC6E9E9298EC7FF0120096
:10FF8000ADEC7FF0D5EC7FF00E0E0E01C86FCAEC21
:10FF90007FF0FFD7550EA76EAA0EA76EFF81D8A0DF
:10FFA0001200F28E000ED86E1200F2AE1200F2AE07
:10FFB00002D0D88001D0D890F29E0E01550EA76EC7
:10FFC000AA0EA76EFF911200000E8D6E000E8C6EB1
:10FFD000000E896E000E8A6E000E8B6E070E966EF6
:10FFE000000E926E9368D70E946E95680F01486963
:08FFF0000F014969F18E1200B6
:08FFF80080F4DDFFF1F9FFF1D7
:00000001FF
